:020000040800F2
:10000000E8060020890100083B0F0008530E000895
:10001000390F000813030008251100080000000034
:100020000000000000000000000000003F0F00087A
:1000300035030008000000003D0F0008410F0008D4
:10004000A3010008A3010008A3010008A301000800
:10005000A3010008A3010008A3010008A3010008F0
:10006000A3010008A3010008A3010008A3010008E0
:10007000A3010008A3010008A3010008A3010008D0
:10008000A3010008A3010008A3010008A3010008C0
:10009000A3010008A3010008A3010008A3010008B0
:1000A000A3010008A3010008A3010008A3010008A0
:1000B000A3010008A3010008A3010008A301000890
:1000C000A3010008A3010008A3010008A301000880
:1000D000A3010008A3010008A3010008A301000870
:1000E000A3010008A3010008A301000800F002F822
:1000F00000F03AF80AA090E8000C82448344AAF188
:100100000107DA4501D100F02FF8AFF2090EBAE885
:100110000F0013F0010F18BFFB1A43F0010318473B
:1001200094130000B4130000103A24BF78C878C1BB
:10013000FAD8520724BF30C830C144BF04680C60ED
:10014000704700000023002400250026103A28BF35
:1001500078C1FBD8520728BF30C148BF0B60704739
:100160001FB51FBD10B510BD00F099F81146FFF77F
:10017000F7FF00F0E9FF00F0B7F803B4FFF7F2FF74
:1001800003BC00F0BFF80000094880470948004759
:10019000FEE7FEE7FEE7FEE7FEE7FEE7FEE7FEE737
:1001A000FEE7FEE704480549054A064B7047000094
:1001B000AD0F0008ED000008E8000020E806002070
:1001C000E8020020E80200204FF0000200B51346CC
:1001D00094469646203922BFA0E80C50A0E80C5067
:1001E000B1F12001BFF4F7AF090728BFA0E80C5018
:1001F00048BF0CC05DF804EB890028BF40F8042B11
:1002000008BF704748BF20F8022B11F0804F18BF7D
:1002100000F8012B704700004FF0013C50F8042B10
:1002200051F8043B9A4221D1A2EB0C03934313EA09
:10023000CC1317D150F8042B51F8043B9A4215D136
:10024000A2EB0C03934313EACC130BD150F8042B0D
:1002500051F8043B9A4209D1A2EB0C03934313EAF1
:10026000CC13DBD04FF00000704700BFD01A01BAAA
:10027000B1FA81F101F0180122FA01F0CB40C1F18D
:100280002001DBB2C0B2C01A2CFA01F3D11A91439B
:1002900011EAC311E6D17047704770477047754641
:1002A00000F02CF8AE4605006946534620F00700E2
:1002B000854618B020B5FFF775FFBDE820404FF028
:1002C00000064FF000074FF000084FF0000B21F040
:1002D0000701AC46ACE8C009ACE8C009ACE8C0090D
:1002E000ACE8C0098D46704710B50446AFF30080F6
:1002F0002046BDE81040FFF740BF000000487047AF
:100300008400002001491820ABBEFEE72600020051
:100310007047FEE7064B2D22A3F1180148781A54C6
:10032000401CC0B24870062801D100F08BB870475D
:1003300024000020704700007CB50DA26B46D2E976
:100340000012CDE9001200210A220BE090FBF2F42A
:1003500002FB1405C1F1030490FBF2F01E5D491C81
:1003600035441D550028F1DC184600F031F87CBDFD
:100370003030303000000000F0B5124A9168032997
:1003800016D0491C10480F4B91605B1C405C595CB7
:1003900012780E4C42EA0121084380252560002195
:1003A0006615A215231F2260070403D51E6002E014
:1003B0000021E7E7266040001A60491C1029F2DBA3
:1003C0001D60F0BD00000020FC110008140C01406D
:1003D000042100F001B80000F0B500220F4B104FCF
:1003E000164604787CB191420FD045782E2D0CD062
:1003F00000253C5D2C439C5404782E2C08D0447876
:100400002E2C04D004E09E5403E02025F1E7401C8C
:10041000401C521C042AE4DBF0BD00000100002057
:1004200000120008064B2E22A3F1180148781A5436
:10043000401CC0B24870062801D100F003B87047D4
:100440002400002038B50E4D002405F118006C7012
:1004500000F0AEFD28718DF800006423012269468A
:10046000084800F0A9FC0821074800F018F900200E
:1004700005F118010C54401C0528FBDB38BD0000B9
:100480000C0000203C000020000C014072B6FEE78A
:1004900070B5044600F010F90546601C02D004480F
:1004A0000078044400F008F9401BA042FAD370BD64
:1004B0002C0000202DE9F84FDFF8B8910024A9F1B5
:1004C000040B23460F2709F1040AABF1040EC9E01F
:1004D0000125A5402A40AA427DD1674ED1F804C02B
:1004E000ACEB0608B44532D014DCBCF1030F3AD0B3
:1004F00009DCBCF1000F2AD0BCF1010F1CD0BCF10B
:10050000020F31D11DE0BCF1110F17D0BCF1120F59
:100510002AD119E0B8F5881F19D006DCB8F5803F5C
:1005200015D0B8F5801F1FD111E0B8F5001F0ED00F
:10053000B8F5041F18D10AE0CB6815E0CB681B1D85
:1005400012E0CB6808330FE0CB680C330CE08B680B
:100550002BB1012B4FF0080303D0456104E00423C5
:1005600002E0056100E00023FF2A01D8064601E011
:1005700000F104064FEA840501D9A5F12005D6F85B
:10058000008007FA05FC28EA0C0803FA05F548EA9A
:100590000508C6F800804D68ED0062D5374DAE699C
:1005A00046F00106AE61AD6924F0030605F00105D1
:1005B0000095334D06EB050CDCF80850A607360F06
:1005C00007FA06F825EA0805DFF8B880404503D1A8
:1005D0004FF0000817E044E0DFF8AC80404502D15E
:1005E0004FF001080FE0DFF8A480404502D14FF042
:1005F000020808E0DFF89880404502D14FF0030878
:1006000001E04FF0040808FA06F848EA0508CCF8BB
:1006100008804D68D9F80060ED024D4601D51643BB
:1006200000E096432E604D68DAF80060AD02554652
:1006300001D5164300E096432E604D68DBF800605C
:10064000AD035D4601D5164300E096432E604D682C
:10065000DEF80060ED03754601D5164300E09643D1
:100660002E60641C0D682A46E5407FF431AFBDE87A
:10067000F88F000008040140000011100010024033
:100680000000014000080140000C01400010014042
:10069000001401408068084000D001207047C26803
:1006A00021EA02030A4043EA0241016170470AB1AC
:1006B000016170470904FBE701488068704700004A
:1006C0002C00002002488168027811448160704744
:1006D0002C000020074810B5016841F010010160AE
:1006E000032000F067F80F2000F006F800F024F86F
:1006F000002010BD0020024070B50D4D04464FF49F
:100700007A712878B1FBF0F00A490968B1FBF0F082
:1007100000F0D0FA48B9102C07D200222146501E12
:1007200000F028F800206C6070BD012070BD000052
:100730002C000020380000200C4808B5816941F0E9
:1007400001018161816901F001010091C16941F0FC
:100750008051C161C06900F0805000900448416838
:1007600021F0E06141F00071416008BD00100240DD
:1007700000000140F0B40E4B1B680C46C3F302238B
:10078000C3F10705042D00D90425191D072901D23D
:10079000002300E0DB1E012606FA05F1491E214078
:1007A00099409E40761E16403143F0BC00F0BBBC21
:1007B0000CED00E0064900F0070208684FF6FF0361
:1007C000184040EA0220034A1043086070470000C6
:1007D0000CED00E00000FA052DE9F0470F4605009A
:1007E00061D0434E306800F00700B84209D230684B
:1007F00020F0070038433060306800F00700B8424E
:1008000051D128683B4C810712D5400703D5606859
:1008100040F4E06060602878000703D5606840F429
:10082000605060606068A96820F0F0000843606074
:100830002878C00728D06868012810D021680228CD
:1008400010D0890700292EDA616821F003010143E5
:100850006160FFF731FF804641F288390DE0216881
:100860008903EFE78901EDE7FFF726FFA0EB080119
:10087000494502D90320BDE8F0876068696800F047
:100880000C00B0EB810FEFD1306800F00700B842E8
:100890000BD9306820F0070038433060306800F032
:1008A0000700B84201D00120E5E72878400705D5C8
:1008B0006068E96820F4E060084360602878000719
:1008C00006D56068296920F4605040EAC100606084
:1008D00000F038F86168084AC1F30311515CC84060
:1008E0000649086006480068FFF706FF0020C2E7D7
:1008F0000020024000100240B2130008380000201F
:10090000300000200448054900684968044AC1F3E2
:100910000221515CC840704738000020001002409E
:10092000C21300080448054900684968044AC1F335
:10093000C221515CC84070473800002000100240BE
:10094000C21300080E4A51680E4801F00C03042B34
:1009500011D0082B0FD10C48C1F38343C903C05CED
:100960000AD55168084AC1F34041921E515C054ABC
:100970005043B0FBF1F07047044948437047000012
:100980000010024000127A00A213000800093D0086
:100990002DE9F84F040070D02078C04DC00749D031
:1009A0006868C0F38100012807D06868C0F381003F
:1009B000022809D16868C00306D52868800339D5A4
:1009C00060680028E7D035E06068B0F5803F0BD064
:1009D00010B1B0F5A02F11D0286820F48030286025
:1009E000286820F4802002E0286840F480302860E5
:1009F000606890B1FFF760FE06460AE0286840F4A0
:100A000080202860F0E700BFFFF756FE801B6428B7
:100A100073D828688003F7D50CE0FFF74DFE064633
:100A200005E000BFFFF748FE801B6428F0D8286867
:100A30008003F7D420789A4E80074FF001094FF0D9
:100A4000000839D5686810F00C0F07D06868C0F34B
:100A50008100022809D16868C00306D4286880078D
:100A600014D52069012808D110E02069B0B1C6F87A
:100A70000090FFF721FE074605E00AE1FFF71CFEA4
:100A8000C01B0228C4D828688007F7D52868616988
:100A900020F0F80040EAC10028600DE0C6F80080B0
:100AA000FFF70AFE074604E0FFF706FEC01B022818
:100AB00023D828688007F7D4207800072CD57948F8
:100AC000A169D9B1C0F80090FFF7F6FD074604E030
:100AD000FFF7F2FDC01B02280FD8686A8007F7D520
:100AE00071484FF4FA510068B0FBF1F0009000BF7C
:100AF0000098411E0091FAD20EE080E0C0F800801C
:100B0000FFF7DAFD074604E0FFF7D6FDC01B022819
:100B100075D8686A8007F7D42078400760D5E869FF
:100B20000027C00008D4E86940F08050E861E86917
:100B3000012700F0805000905C480168C90513D47B
:100B40000168834641F480710160FFF7B5FD82467C
:100B500006E000BFFFF7B0FDA0EB0A0064284ED806
:100B6000DBF80000C005F5D5E06801280AD008B11F
:100B7000052813D0286A20F001002862286A20F096
:100B8000040002E0286A40F001002862E06841F2B7
:100B9000883B98B1FFF790FD82460BE0286A40F051
:100BA00004002862EEE700BFFFF786FDA0EB0A0114
:100BB00059455AD8286A8007F6D50CE0FFF77CFD26
:100BC000824605E0FFF778FDA0EB0A0159454CD8B5
:100BD000286A8007F6D41FB1E86920F08050E861E8
:100BE000E06988B36968C1F38101022944D0022811
:100BF000C6F8608004D0FFF75FFD044638E034E0BB
:100C0000FFF75AFD074604E0FFF756FDC01B022818
:100C10002BD828688001F7D4206AB0F5803F05D131
:100C20006868A16820F4003008436860D4E90801CE
:100C30000843696821F4741108436860C6F860903D
:100C4000FFF73AFD044606E025E000BFFFF734FD5C
:100C5000001B022809D828688001F7D51BE000BFD7
:100C6000FFF72AFD001B022802D90320BDE8F88FF8
:100C700028688001F4D40EE00128F7D06868226A61
:100C800000F48031914204D1616A00F4701088420E
:100C900001D00120EAE70020E8E700000010024050
:100CA00000004242800442423800002000700040B0
:100CB000FFF762BB10B5401EB0F1807F01D3012069
:100CC00010BD4FF0E02460610F21601700F02BFA97
:100CD0000020A06107202061002010BD10B5FFF7A3
:100CE000E7FF10BD70B5040004D094F84100002562
:100CF00010B106E0012070BD84F84050204600F09D
:100D000023F8242084F841002068C16821F40051B0
:100D1000C160204600F06EF92068016921F490411D
:100D200001612068416921F02A0141612068C168A0
:100D300041F40051C1606564202084F8410084F8CA
:100D400042006563002070BD30B585B0002400947A
:100D500001940294039400681449884223D11448F2
:100D6000C16941F40031C161C16901F400310491EC
:100D7000816941F00401816180690E4D00F0040039
:100D80000490042000900220019003200390694603
:100D90002846FFF78FFB0820CDE900046946284666
:100DA0000294FFF787FB05B030BD0000004400400F
:100DB00000100240000801402DE9F843044690F875
:100DC00041001F4616460D46202802D00220BDE8ED
:100DD000F8837DB176B100206064212084F8410061
:100DE000FFF76AFCA6848046E684A068B0F5805FC1
:100DF00002D003E00120EAE7206910B12E46002569
:100E00000EE000260CE08021204600F04FF9A0B94A
:100E1000AEB116F8010B21684860E08C401EE084FA
:100E2000E08C43464FF0000200970028EBD14FF0D2
:100E30004001204600F03AF930B10320C7E735F809
:100E4000020BC0F30800E6E7202084F841000020F0
:100E5000BDE7FEE72DE9F04385B000242548009466
:100E6000019402940394816941F0200181618169B8
:100E700001F020010491816941F0040181618169DF
:100E800001F004010491816941F0080181618069E8
:100E9000DFF8648000F008004FF400450490002261
:100EA00029464046FFF703FCDFF850904FF4627785
:100EB000002239464846FFF7FAFB00950226012535
:100EC0000396CDE9015469464046FFF7F3FA0097CF
:100ED0000396CDE9015469464846FFF7EBFA6020D6
:100EE000CDE90004694648460294FFF7E3FA05B0ED
:100EF000BDE8F0830010024000080140000C0140F2
:100F00000C4810B50A4901604FF4E13141600021FD
:100F100081600C22C160C0E904128161C161FFF7E8
:100F2000E1FE002803D0BDE81040FFF7AFBA10BDC6
:100F3000004400403C000020FEE7FEE77047704799
:100F400010B5FFF7BFFBBDE81040FFF7C7BE30B5D7
:100F50008FB028216846FFF737F914210AA8FFF758
:100F600033F901210804CDE9001000240294022580
:100F70000491CDE907504FF4E01009906846FFF75F
:100F800007FD08B172B6FEE70F20CDE90A054FF460
:100F90008060CDE90C4002210AA80E94FFF71CFCEA
:100FA000002801D072B6FEE70FB030BD70470000D8
:100FB00070B50D4D06460024304655F83410FFF745
:100FC0002BF940B1641C242CF6D30848C0780128C2
:100FD00000D03F2070BD0122D1030548FFF767FB19
:100FE00005EBC400007970BD801200080C000020E1
:100FF0000008014070B5044600680169E26821F408
:101000004051114301612169A068084361690843A7
:101010002168CA6841F20C639A430243CA6020689F
:101020004169A26921F44071114341611E49206860
:10103000884202D1FFF776FC01E0FFF763FC00EB8A
:10104000C00101EB0012606864218000B2FBF0F384
:10105000B3FBF1F36FF018067343B2FBF0F5B2FB8C
:10106000F0F605EB8305322303EB0515B5FBF1F52F
:10107000B6FBF1F605F0F00505EB0615B2FBF0F650
:10108000B2FBF0F0B0FBF1F06FF01802504306EB4A
:10109000800003EB0010B0FBF1F0216800F00F00BE
:1010A0002844886070BD0000003801402DE9F041FF
:1010B000984617460E460446069D27E0681C25D034
:1010C0002DB1FFF7F9FAA0EB0800A8421ED920685D
:1010D0000C3050E8001F21F4D07140E80012002AC3
:1010E000F5D12068143050E8001F21F0010140E8DC
:1010F0000012002AF5D1202084F8410084F8420033
:10110000002084F840000320BDE8F08120680068DA
:1011100036EA000004D00020B842CFD00020F3E728
:101120000120F9E7FEE70907090E002804DB00F1BA
:10113000E02080F80014704700F00F0000F1E0207C
:1011400080F8141D70470000FFF7C4FAFFF7FFFE98
:10115000FFF780FEFFF7D4FE264E0127264C4FF402
:101160007A7800252078FFF7E7F840213046FFF72E
:1011700091FA00284FF0320008D0FFF789F940219A
:101180003046FFF787FA01280FD022E0FFF780F9F9
:1011900040213046FFF77EFAD8B92078C8B9FFF76A
:1011A0008BFAA060A5702770DCE7207888B1FFF784
:1011B00083FAE060A168401A2061404502D9FFF738
:1011C000A9F801E0FFF72EF92570A7704046FFF758
:1011D0005FF9A0780128C5D1FFF76EFA6061E16878
:1011E000401A40F6B8318842BCD3FFF72BF9A570FE
:1011F000B8E70000000C01400C00002070B0D0E007
:1012000000000000000000000000000000000000DE
:1012100000000000000000000000000000000000CE
:10122000000000000000000000000000000220009C
:10123000DD09D39B0F9EDE19DF9F000000820000B6
:10124000005FCEC2CBD6569F4E40895EC44B4ACA81
:10125000571F429EC6C8CDCF4F8F4300000000806D
:10126000005FCEC2CBD6569F4E40895EC44B4ACA61
:10127000571F429EC6C8CDCF4F8F430000000000CD
:1012800030140008410000008814000842000000EB
:101290004C140008430000007C14000844000000C7
:1012A000B014000845000000541400084600000077
:1012B0004814000847000000A0140008480000007F
:1012C000AC14000849000000E41300084A000000C4
:1012D000101400084B000000741400084C000000BB
:1012E000041400084D000000601400084E000000C7
:1012F000EC1300084F0000004014000850000000EC
:1013000008140008510000005C140008520000009E
:10131000A814000853000000341400085400000012
:101320002C1400085500000024140008560000008A
:1013300000140008570000001414000858000000B2
:10134000F0130008590000006C1400085A00000057
:10135000CC13000830000000D41300083100000056
:10136000DC13000832000000F8130008330000000E
:101370001C14000834000000981400083500000018
:1013800090140008360000008014000837000000A8
:101390006414000838000000381400083900000008
:1013A000010202030405060708090A0B0C0D0E0FC3
:1013B00010100000000000000000010203040607F6
:1013C0000809000000000102030400002D2D2D2D4E
:1013D0002D0000002E2D2D2D2D0000002E2E2D2D48
:1013E0002D0000002E2D2D2D000000002D2D2D0094
:1013F0002D2E2D2D000000002E2E2E2D2D00000054
:101400002E2D2D002D2D00002D2D2E2D0000000045
:101410002D2E2D002D2E2E2D000000002E2E2E2ED6
:101420002D0000002E2E2E2D000000002E2E2D004F
:101430002E2D00002D0000002D2D2D2D2E00000042
:101440002E2D2D2E000000002D2D2E002D2E2D2EA8
:10145000000000002E2E2D2E000000002E2D2E004C
:101460002D2E00002D2D2D2E2E0000002D2D2E2E88
:10147000000000002E2D2E2E000000002D2E2E002C
:101480002D2D2E2E2E0000002D2E2E2E00000000C1
:101490002D2E2E2E2E0000002E2E2E2E2E00000081
:1014A0002E2E2E2E000000002E2E2E002E2E00009E
:1014B0002E000000D4140008000000203C000000B2
:1014C00028010008101500083C000020AC060000B0
:1014D000440100080F0000000000000000000000B0
:1014E00000000000000000000000000000000000FC
:1014F00000000000000000000000000000000000EC
:101500000100000010000000000000000024F400B2
:04000005080000ED02
:00000001FF
